{
  "contractName": "ChainList",
  "abi": [
    {
      "anonymous": false,
      "inputs": [
        {
          "indexed": true,
          "internalType": "uint256",
          "name": "_id",
          "type": "uint256"
        },
        {
          "indexed": true,
          "internalType": "address",
          "name": "_seller",
          "type": "address"
        },
        {
          "indexed": true,
          "internalType": "address",
          "name": "_buyer",
          "type": "address"
        },
        {
          "indexed": false,
          "internalType": "string",
          "name": "_name",
          "type": "string"
        },
        {
          "indexed": false,
          "internalType": "uint256",
          "name": "_price",
          "type": "uint256"
        }
      ],
      "name": "LogBuyArticle",
      "type": "event"
    },
    {
      "anonymous": false,
      "inputs": [
        {
          "indexed": true,
          "internalType": "uint256",
          "name": "_id",
          "type": "uint256"
        },
        {
          "indexed": true,
          "internalType": "address",
          "name": "_seller",
          "type": "address"
        },
        {
          "indexed": false,
          "internalType": "string",
          "name": "_name",
          "type": "string"
        },
        {
          "indexed": false,
          "internalType": "uint256",
          "name": "_price",
          "type": "uint256"
        }
      ],
      "name": "LogSellArticle",
      "type": "event"
    },
    {
      "inputs": [
        {
          "internalType": "uint256",
          "name": "",
          "type": "uint256"
        }
      ],
      "name": "articles",
      "outputs": [
        {
          "internalType": "uint256",
          "name": "id",
          "type": "uint256"
        },
        {
          "internalType": "address payable",
          "name": "seller",
          "type": "address"
        },
        {
          "internalType": "address",
          "name": "buyer",
          "type": "address"
        },
        {
          "internalType": "string",
          "name": "name",
          "type": "string"
        },
        {
          "internalType": "string",
          "name": "description",
          "type": "string"
        },
        {
          "internalType": "uint256",
          "name": "price",
          "type": "uint256"
        }
      ],
      "stateMutability": "view",
      "type": "function",
      "constant": true
    },
    {
      "inputs": [],
      "name": "kill",
      "outputs": [],
      "stateMutability": "nonpayable",
      "type": "function"
    },
    {
      "inputs": [
        {
          "internalType": "string",
          "name": "_name",
          "type": "string"
        },
        {
          "internalType": "string",
          "name": "_desc",
          "type": "string"
        },
        {
          "internalType": "uint256",
          "name": "_price",
          "type": "uint256"
        }
      ],
      "name": "sellArticle",
      "outputs": [],
      "stateMutability": "nonpayable",
      "type": "function"
    },
    {
      "inputs": [],
      "name": "getNumberOfArticles",
      "outputs": [
        {
          "internalType": "uint256",
          "name": "",
          "type": "uint256"
        }
      ],
      "stateMutability": "view",
      "type": "function",
      "constant": true
    },
    {
      "inputs": [],
      "name": "getArticlesForSale",
      "outputs": [
        {
          "internalType": "uint256[]",
          "name": "",
          "type": "uint256[]"
        }
      ],
      "stateMutability": "view",
      "type": "function",
      "constant": true
    },
    {
      "inputs": [
        {
          "internalType": "uint256",
          "name": "_id",
          "type": "uint256"
        }
      ],
      "name": "buyArticle",
      "outputs": [],
      "stateMutability": "payable",
      "type": "function",
      "payable": true
    }
  ],
  "bytecode": "0x608060405234801561001057600080fd5b50600080546001600160a01b03191633179055610b2f806100326000396000f3fe6080604052600436106100555760003560e01c80631cc4baa81461005a57806341c0e1b51461006f5780637f6be3da1461008457806389da85d3146100af578063d2609515146100cd578063edcfafe6146100ed575b600080fd5b61006d61006836600461079b565b61011f565b005b34801561007b57600080fd5b5061006d610303565b34801561009057600080fd5b50610099610328565b6040516100a691906107b4565b60405180910390f35b3480156100bb57600080fd5b506002546040519081526020016100a6565b3480156100d957600080fd5b5061006d6100e836600461089b565b610492565b3480156100f957600080fd5b5061010d61010836600461079b565b6105af565b6040516100a696959493929190610955565b6000600254116101605760405162461bcd60e51b81526020600482015260076024820152666572726f72203160c81b60448201526064015b60405180910390fd5b60008111801561017257506002548111155b61017b57600080fd5b600081815260016020526040902060028101546001600160a01b0316156101ce5760405162461bcd60e51b815260206004820152600760248201526632b93937b9101960c91b6044820152606401610157565b60018101546001600160a01b03163314156102155760405162461bcd60e51b81526020600482015260076024820152666572726f72203360c81b6044820152606401610157565b806005015434146102525760405162461bcd60e51b8152602060048201526007602482015266195c9c9bdc880d60ca1b6044820152606401610157565b6002810180546001600160a01b0319163317905560018101546040516001600160a01b0391909116903480156108fc02916000818181858888f193505050501580156102a2573d6000803e3d6000fd5b506002810154600182015460058301546040516001600160a01b03938416939092169185917f5d28bc06e6f0c45405abfe77bd77236c767f9bd9d044ae2d954a415a2b4823e0916102f79160038801916109e8565b60405180910390a45050565b6000546001600160a01b0316331461031a57600080fd5b6000546001600160a01b0316ff5b6060600060025467ffffffffffffffff811115610347576103476107f8565b604051908082528060200260200182016040528015610370578160200160208202803683370190505b509050600060015b60025481116103ee576000818152600160205260409020600201546001600160a01b03166103dc5760008181526001602052604090205483518490849081106103c3576103c3610a98565b6020908102919091010152816103d881610aae565b9250505b806103e681610aae565b915050610378565b5060008167ffffffffffffffff81111561040a5761040a6107f8565b604051908082528060200260200182016040528015610433578160200160208202803683370190505b50905060005b8281101561048a5783818151811061045357610453610a98565b602002602001015182828151811061046d5761046d610a98565b60209081029190910101528061048281610aae565b915050610439565b509392505050565b600280549060006104a283610aae565b90915550506040805160c081018252600280548083523360208085019182526000858701818152606087018b8152608088018b905260a088018a905294825260018084529790912086518155925196830180546001600160a01b039889166001600160a01b031991821617909155905194830180549590971694169390931790945551805192939261053a9260038501920190610702565b5060808201518051610556916004840191602090910190610702565b5060a08201518160050155905050336001600160a01b03166002547fe2ebb0c522a8b90a93f45a5dfd3c0e0516b81519fdf199efe51c474642fe8cec85846040516105a2929190610ad7565b60405180910390a3505050565b600160208190526000918252604090912080549181015460028201546003830180546001600160a01b039384169492909316926105eb906109ad565b80601f0160208091040260200160405190810160405280929190818152602001828054610617906109ad565b80156106645780601f1061063957610100808354040283529160200191610664565b820191906000526020600020905b81548152906001019060200180831161064757829003601f168201915b505050505090806004018054610679906109ad565b80601f01602080910402602001604051908101604052809291908181526020018280546106a5906109ad565b80156106f25780601f106106c7576101008083540402835291602001916106f2565b820191906000526020600020905b8154815290600101906020018083116106d557829003601f168201915b5050505050908060050154905086565b82805461070e906109ad565b90600052602060002090601f0160209004810192826107305760008555610776565b82601f1061074957805160ff1916838001178555610776565b82800160010185558215610776579182015b8281111561077657825182559160200191906001019061075b565b50610782929150610786565b5090565b5b808211156107825760008155600101610787565b6000602082840312156107ad57600080fd5b5035919050565b6020808252825182820181905260009190848201906040850190845b818110156107ec578351835292840192918401916001016107d0565b50909695505050505050565b634e487b7160e01b600052604160045260246000fd5b600082601f83011261081f57600080fd5b813567ffffffffffffffff8082111561083a5761083a6107f8565b604051601f8301601f19908116603f01168101908282118183101715610862576108626107f8565b8160405283815286602085880101111561087b57600080fd5b836020870160208301376000602085830101528094505050505092915050565b6000806000606084860312156108b057600080fd5b833567ffffffffffffffff808211156108c857600080fd5b6108d48783880161080e565b945060208601359150808211156108ea57600080fd5b506108f78682870161080e565b925050604084013590509250925092565b6000815180845260005b8181101561092e57602081850181015186830182015201610912565b81811115610940576000602083870101525b50601f01601f19169290920160200192915050565b8681526001600160a01b0386811660208301528516604082015260c06060820181905260009061098790830186610908565b82810360808401526109998186610908565b9150508260a0830152979650505050505050565b600181811c908216806109c157607f821691505b602082108114156109e257634e487b7160e01b600052602260045260246000fd5b50919050565b60408152600080845481600182811c915080831680610a0857607f831692505b6020808410821415610a2857634e487b7160e01b86526022600452602486fd5b6040880184905260608801828015610a475760018114610a5857610a83565b60ff19871682528282019750610a83565b60008c81526020902060005b87811015610a7d57815484820152908601908401610a64565b83019850505b50509690960196909652509095945050505050565b634e487b7160e01b600052603260045260246000fd5b6000600019821415610ad057634e487b7160e01b600052601160045260246000fd5b5060010190565b604081526000610aea6040830185610908565b9050826020830152939250505056fea2646970667358221220e30b6170633f002b56cda6ed305638cb652d308d151c1475c44280129df577d364736f6c634300080b0033",
  "immutableReferences": {},
  "source": "//SPDX-License-Identifier: UNLICENSED\r\n\r\npragma solidity ^0.8.11;\r\n\r\nimport './Ownable.sol';\r\n\r\n\r\ncontract ChainList is Ownable{\r\n\r\n    //custome types\r\n    struct Article{\r\n        uint id;\r\n        address payable seller;\r\n        address buyer;\r\n        string name;\r\n        string description;\r\n        uint256 price;\r\n    }\r\n\r\n    //state vars\r\n    mapping (uint => Article) public articles;\r\n    uint articleCounter;\r\n    \r\n\r\n    //events\r\n    event LogSellArticle(\r\n        uint indexed _id,\r\n        address indexed _seller,\r\n        string _name,\r\n        uint256 _price\r\n    );\r\n\r\n    event LogBuyArticle(\r\n        uint indexed _id,\r\n        address indexed _seller,\r\n        address indexed _buyer,\r\n        string _name,\r\n        uint256 _price\r\n    );\r\n\r\n    //deactivate contract\r\n    function kill() public onlyOwner {\r\n        selfdestruct(owner);\r\n    }\r\n\r\n    //sell an article\r\n    function sellArticle(string memory _name, string memory _desc, uint256 _price) public{\r\n        //a new article\r\n        articleCounter++;\r\n\r\n        //storing this article\r\n        articles[articleCounter] = Article(\r\n            articleCounter,\r\n            payable(msg.sender),\r\n            address(0),\r\n            _name,\r\n            _desc,\r\n            _price\r\n        );\r\n        \r\n        emit LogSellArticle(articleCounter, payable(msg.sender) , _name, _price);\r\n    }\r\n\r\n    //fetch the number of articles in the contract\r\n    function getNumberOfArticles() public view returns (uint){\r\n        return articleCounter;\r\n    }\r\n\r\n    //fetch and return all article IDs for articles still for sale\r\n    function getArticlesForSale() public view returns (uint[] memory){\r\n        //prepare output array\r\n        uint[] memory articleIds = new uint[](articleCounter);\r\n\r\n        uint numberOfArticlesForSale = 0;\r\n\r\n        //iterate over articles\r\n        for(uint i = 1; i <= articleCounter; i++){\r\n            //keep the id if the article is still for sale\r\n            if(articles[i].buyer == address(0)){\r\n                articleIds[numberOfArticlesForSale] = articles[i].id;\r\n                numberOfArticlesForSale++;\r\n            }\r\n        }\r\n\r\n        //copy the articleIds array into a smaller forSale array\r\n        uint[] memory forSale = new uint[](numberOfArticlesForSale);\r\n        for(uint j = 0; j < numberOfArticlesForSale; j++){\r\n            forSale[j] = articleIds[j];\r\n        }\r\n        return forSale;\r\n    }\r\n\r\n\r\n    //buy an article\r\n    function buyArticle(uint _id) public payable{\r\n        //we check whether there is an article for sale\r\n        require(articleCounter > 0, \"error 1\");\r\n\r\n        //we check that the article exists\r\n        require(_id > 0 && _id <= articleCounter);\r\n\r\n        //we retrieve the article with a pointer\r\n        Article storage article = articles[_id];\r\n\r\n        //we check that article has not been sold yet\r\n        require(article.buyer == address(0), \"error 2\");\r\n\r\n        //we don't allow seller to buy his own article\r\n        require(msg.sender != article.seller, \"error 3\");\r\n\r\n        //we check that the value sent corresponds to the price of the article\r\n        require(msg.value == article.price, \"error 4\");\r\n\r\n        //keep buyers information\r\n        article.buyer = msg.sender;\r\n\r\n        //the buyer can pay the seller\r\n        article.seller.transfer(msg.value);\r\n\r\n        //trigger event\r\n        emit LogBuyArticle(_id, article.seller, article.buyer, article.name, article.price);\r\n    }\r\n\r\n\r\n}",
  "sourcePath": "C:\\Users\\Yiannis\\ChainSkills\\Training\\chainlist\\contracts\\ChainList.sol",
  "compiler": {
    "name": "solc",
    "version": "0.8.11+commit.d7f03943.Emscripten.clang"
  },
  "schemaVersion": "3.4.4",
  "updatedAt": "2022-08-15T16:12:06.065Z",
  "networkType": "ethereum",
  "devdoc": {
    "kind": "dev",
    "methods": {},
    "version": 1
  },
  "userdoc": {
    "kind": "user",
    "methods": {},
    "version": 1
  }
}